:080000000C94AC000C949A036F
:100008000C94CC030C9400000C9400000C94000099
:100018000C9400000C9400000C9400000C94000058
:100028000C9400000C9400000C9400000C94000048
:100038000C9400000C9400000C9400000C94000038
:100048000C9400000C9400000C9400001027E803A6
:1000580064000A00010000100001100001003402D1
:100068009B0322026F00F701F801416C6963650088
:10007800526F62727400436861726C00456E7465F9
:100088007220796F7572204944203A2000456E74B9
:10009800657220596F7572205043203A2000536FC3
:1000A8007272792057726F6E672050430057726FD3
:1000B8006E672049440057656C636F6D652C20009E
:1000C800256300456E746572207573657220494416
:1000D8003A2000456E746572206E65772050433A69
:1000E800200052656E746572206E65772050433A21
:1000F8002000436F6E746163742041646D696E0003
:100108004E65772050617373436F64652073617621
:10011800656400456E74657220757365722050437E
:100128003A2000456E7465722041646D696E2050F6
:10013800433A200080C001002D4E414E00494E46F2
:100148000000020060013C01010064013E01000062
:10015800F894EE27ECBBF1E0FBBFEBBFE5BF8DE009
:10016800A2E0BB27ED938A95E9F780E094E0A0E64A
:10017800ED930197E9F7EAE4F1E08591959100970D
:1001880061F0A591B59105901590BF01F00105901A
:100198000D920197E1F7FB01F0CFEFE5EDBFE4E049
:1001A800EEBFC0E6D1E00C94D900E7E0E4BBE8EF8D
:1001B800E5BBA0E14ED38A988B98929A939A8D9A30
:1001C800EBB7E064EBBFEBB7E068EBBFE5B7E36024
:1001D800E5BFE5B7EC60E5BF7894889A899ACAD1FB
:1001E800219748D2E88318D3A881AA3209F403D00A
:1001F8002196F6CFFFCF2697C1D50ED3E4E8F0E0DD
:10020800C9D44330E0E05E078CF4FA01DE011996A8
:10021800EA0FFB1FFF93EF932DD2AF91BF91EC93A1
:10022800DE011996BFD44F5F5F4FEBCFDE01199601
:10023800BDD449F1F1D2E5E9F0E0ACD44330E0E0D7
:100248005E078CF4FA01DE011696EA0FFB1FFF9396
:10025800EF9310D2AF91BF91EC93DE011696A2D422
:100268004F5F5F4FEBCFFE013696A5D43E2F30305F
:1002780029F4D2D2E6EAF0E0A2D404C0CDD2D80163
:1002880076D0DBD105C0C8D2E5EBF0E098D4ECD14C
:100298004BC0BA93AA93249771D506E010E040E0CA
:1002A80050E0E0E0E887E987A885B9851397D4F599
:1002B800E885F985AEE0B0E087D536968F01E0E0B5
:1002C800EE83EF83AE81BF811397E4F4E199FECF0B
:1002D800D80198D1E05D3E2FA4EFB1E0B7D5EE810B
:1002E800FF81AA85BB85AE0FBF1FEC91E31711F400
:1002F8004F5F5F4F0F5F1F4FEE81FF813196EE8397
:10030800FF83E0CFE3E0F0E0E417F50719F4F80124
:1003180031960AC040E050E0E885F9853196E887D3
:10032800F987C2CFE0E0F0E030D52C96089526D5C5
:10033800AD0120E030E02330E0E03E07A4F4E1998D
:10034800FECFDA015FD1E05D1E2FAE81BF81A20F23
:10035800B31FEC91E11711F0E0E006C04F5F5F4F6B
:100368002F5F3F4FE8CFE1E010D52896089506D5D6
:10037800AD014A505040EEEBF0E027D400E010E029
:100388000530E0E01E07A4F4DA013CD13E2FE8EC8A
:10039800F0E0FA93EA93E32FFF276627772751D5F2
:1003A80084E0B8D326964F5F5F4F0F5F1F4FE8CFAB
:1003B800ECD441C110D420E030E02330E0E03E0727
:1003C80054F40FD4FF93EF9355D1AF91BF910FD44D
:1003D8002F5F3F4FF2CFDE011A96E8D3A1F10ED47A
:1003E80020E030E02330E0E03E0754F40BD4FF93E4
:1003F800EF9340D1AF91BF910BD42F5F3F4FF2CF16
:100408000ED420E030E02330E0E03E0754F40BD473
:10041800FF93EF932FD1AF91BF91FAD32F5F3F4F47
:10042800F2CF20E030E02330E0E03E074CF401D486
:1004380005D419F00BD418D175C02F5F3F4FF3CFF7
:1004480009D40CD402C013D416D46BC0C4D320E092
:1004580030E02330E0E03E0754F4C3D3FF93EF933A
:1004680009D1AF91BF91C3D32F5F3F4FF2CFDE01C8
:100478001A969CD309F453C0CFD1EBE1F1E0A5D390
:1004880020E030E02330E0E03E0754F4BBD3FF9394
:10049800EF93F0D0AF91BF91BBD32F5F3F4FF2CF17
:1004A800FE01379688D3E03019F4D0D3DDD03AC0B6
:1004B800A5D320E030E02330E0E03E0754F4A2D397
:1004C800FF93EF93D7D0AF91BF91A2D32F5F3F4F48
:1004D800F2CFA5D320E030E02330E0E03E076CF413
:1004E800A2D3FF93EF93C6D0AF91BF91EC93A1D362
:1004F800AC919CD12F5F3F4FEFCF20E030E023300D
:10050800E0E03E074CF495D399D319F09FD3ACD0D3
:1005180009C02F5F3F4FF3CF9DD3A0D302C0A7D30D
:10052800AAD37AD134D42D960895BA93AA9326D40F
:100538000E811F8120E030E02330E0E03E07BCF46C
:10054800E199FECFA4EFB1E081D4A885B985A20FC7
:10055800B31FEC91F0E0F097AF015ED11A930A93C4
:10056800A42F5AD00F5F1F4F2F5F3F4FE5CF0DD4F9
:100578002A9608956E978EE160E070E0E6E6F0E076
:100588000BD4FCD340E050E000E010E00330E0E0A2
:100598001E0774F520E030E02530E0E03E07A4F4C3
:1005A8005A934A93A6E0A09FF001A19FF00DDE01A7
:1005B8005496EA0FFB1FE20FF31FA0812DD04F5F67
:1005C8005F4F2F5F3F4FE8CF5BD364D36DD362D3C8
:1005D80076D360D383D354D389D366D387D36FD3E9
:1005E80085D37CD38DD34F5F5F4F0F5F1F4FCECF27
:1005F80087D3FA01319688D3FA01329685D3C5D3C9
:10060800A49608951A930A938D01E199FECF1FBB12
:100618000EBBE09AEDB325C0B3D31A2F2C813D81D0
:10062800E199FECF3FBB2EBB1DBBE29AE19AE1994F
:10063800FECFE198ACD3269608951A930A9300E06A
:1006480010E00530E0E01E0764F4909A9198A8EE57
:10065800B3E0FCD39098A8EEB3E0F8D30F5F1F4F38
:10066800F0CF099119910895959AA4E6B0E0EED3D8
:1006780095980895A898A99AAA9AE3B3E63F29F409
:100688009B9BFECFE1E3089519C0EE3E29F49C9BA5
:10069800FECFE4E3089512C0EE3D29F49D9BFECF02
:1006A800E7E308950BC0EE3B11F0ED3B09F402C0FF
:1006B800EB3B21F49E9BFECFEAE20895A89AA99805
:1006C800AA9AE3B3E53F29F49B9BFECFE2E30895A2
:1006D80014C0ED3E29F49C9BFECFE5E308950DC0C0
:1006E800ED3D29F49D9BFECFE8E3089506C0ED3B60
:1006F80021F49E9BFECFE0E30895A89AA99AAA98B0
:10070800E3B3E33F29F49B9BFECFE3E308950DC0D9
:10071800EB3E29F49C9BFECFE6E3089506C0EB3D33
:1007280021F49D9BFECFE9E30895A4CFF1D223974E
:1007380027D372D0EBE2F1E048D200E010E00330BA
:10074800E0E01E07A4F4F801DE011496EA0FFB1F8F
:10075800FF93EF938FDFAF91BF91EC93DE01149677
:10076800A00FB11FAC9162D00F5F1F4FE8CFFE0101
:100778003496FA93EA93AAE0B0E0D9DD3E2F303000
:1007880019F464D271DF01C015DE01D3279602C0C7
:10079800BFD25CDEE991EFBFF991E991B991A991D6
:1007A8009991899179916991F99019900990189581
:1007B8001A931A2FEBB3EF70AE2FE12FE07FEA2BDD
:1007C800EBBB8DE08A95F1F7DA9A8DE08A95F1F71F
:1007D800DA988DE08A95F1F765C0AA93A881E8DFD9
:1007E800E881E295E883A881E3DF85E88A95F1F757
:1007F800219608951A930A931A2F0A81E12FF0E09F
:10080800E05AFE4FE081E00FAE2FE7DF502E412E79
:100818001981088123960895A2E088D2ACE0DDDF33
:10082800A1E084D2E0E04E2E5E2E08951A931A2F8E
:100838001A3011F0571438F0E0E0EA934394A42DED
:10084800D9DF1A3079F15394D89AA12FC6DFD898F6
:1008580029C01A931A2FEAB3E06FEABBD29AD09A4A
:10086800D19ADA98D898D998712EE12FE058E09368
:100878006201E12FE054E0936301A4E1B0E0E6D225
:1008880059D258D257D2A0E293DF88EC90E0019772
:10089800F1F7A8E2A2DFA4E0A0DFA5E89EDFA6E0CA
:1008A8009CDFBADF19910895BA93AA93269766D266
:1008B80010E0AC85BD85E0E0F0E0ED93FC93EA89BB
:1008C800FB893196EA8BFB8B3197E4912E2FE03030
:1008D80009F40BC1E12FE03031F4253211F411E0B5
:1008E80001C02FD201C1E130A1F4253211F429D27F
:1008F800FAC012E040E000E02D3211F401E0F4C04B
:100908002B3211F44BE2F0C0203211F440E2ECC07B
:1009180002C0E23039F450E013E0203311F40068EB
:10092800E3C003C0E33009F0DFC0203310F02A33FE
:1009380008F007C0AAE05A9F502DE22FE0535E0F3F
:10094800D3C0E22FE33639F403D2E889F989A481C8
:10095800AA9304D2C8C0E33729F4FAD105D201D149
:100968001E2F07C0E03749F4F3D1FED106D11E2F60
:10097800086002600F7730E03AC0E43611F0E936DB
:1009880011F4046002C0E53731F4E4E5F0E0EE83E9
:10099800FF8315E00CC0E83511F4086003C0E837A0
:1009A80009F0A1C0EEE5F0E0EE83FF8314E002FF5A
:1009B80015C0CED1A889B9891496ED91FD91EA8721
:1009C800FB87AB85AA2322F4F3D1EA87FB874DE2A4
:1009D800403011F01F5F01C00B7F09C0B9D1A88951
:1009E800B9891496ED91FC911197EA87FB8700FD70
:1009F80010C0151770F407FF08C002FF04C00B7F72
:100A0800242F115001C020E301C020E29AD1515097
:100A1800F0CF312F01FF16C0303099F003FF06C028
:100A2800EE81FF812591EE83FF8305C0AE81BF81F2
:100A38002D91AE83BF8385D1503009F0515031508C
:100A4800EBCF48C020E3EE81FF81F7D1E887F98733
:100A5800EE81FF813296EE83FF83E885F985AA85CA
:100A6800BB85AE17BF0750F02F5FA885B985EA850B
:100A7800FB85EA1BFB0BEA87FB87EFCF2A3328F0BD
:100A880003FF02C0295F01C0295D04FD19C021339D
:100A980020F4A885B985119709F409C0531710F0F7
:100AA80000FF01C011C020E207FF0AC020E3006177
:100AB80002FF06C00B7F4A9351D1503009F05150C4
:100AC80040D1503009F051503150A885B98512975E
:100AD80008F0B8CF00FF07C0503029F05150E0E2CD
:100AE800EA933CD1F9CF10E0EACEAC85BD85ED9113
:100AF800FD914BD16496089543D18D013C81A32F7C
:100B080095DED801ED91FD913196FE93EE933FD19C
:100B180025960895FF92F82E26971A930A93DE01D8
:100B280014960024AF0DB01D8D01E0E0EC83ED8339
:100B3800EE83EF83DE0118960024AF0DB01DED9112
:100B4800FD91FA93EA931A930A93E0E8F5E0FA9391
:100B5800EA93DE011896A8DE198108812896FF908D
:100B68000895BA93AA93A991B991EE27FF276D9199
:100B7800662311F03196FBCF0895BA93AA93AA275A
:100B8800BB27E991F9910590002011F01196FBCF50
:100B9800FD010895FA93EA9380E0BCDF229640E0D5
:100BA80050E00895A40FB51FAC9140CE72DB8F01C1
:100BB800002E012A0895FA93EA93D801B8CBFA9344
:100BC800EA9380E0A7DF22964FCDFA93EA9380E07C
:100BD800A1DF229608952997D3D01EDEEBECF0E032
:100BE800F4CFF901DE011A96EA0FFB1F0895EC9382
:100BF800DE011A96A20FB31FAC9118CE0DDEEBEDF5
:100C0800F0E0E3CFF901DE011796EA0FFB1F089524
:100C1800EC93DE011796A20FB31FAC9107CEFCDD53
:100C2800EAEEF0E0D2CFF901DE011496EA0FFB1FDD
:100C38000895DE011496A20FB31F08950C90DE01EB
:100C48001796A20FB31FEC91E0150895E5DDEAEFC2
:100C5800F0E0B5CFE1DDE8E0F1E0B7CFA4E6B0E041
:100C6800F5D0FE013796FA93EA93D8015ECCD4DD2D
:100C7800EAEFF0E0AACFA4E6B0E0E8D0F5DCF4CCE7
:100C88005A934A93AFEFC8DC4F5F5F4F5A934A932A
:100C9800F8010895DE011E96EE0FFF1FAE0FBF1F6D
:100CA800ED91FD91DF010895E4E6F0E0A5D0AE2FC7
:100CB800B3DCFA013196FA93EA93F8010895EAE071
:100CC800F0E09AD0DF01EAE0F0E09BD0AE2FA4DCA0
:100CD800FA013296FA93EA93F8010895EAE0F0E00F
:100CE80090D0AE2F99DC4D5F5F4F0895DE011896C6
:100CF800EE0FFF1FAE0FBF1FED91FD91DF010895AD
:100D08005A934A93AFEF88CCFA93EA93AFEF84CC27
:100D18000A921A92FA926A937A938A939A93AA9366
:100D2800BA93EA93FA93EFB7EA93089556DDA3E0EE
:100D3800B0E08CC0A0E33CDD88EC90E00197F1F7CF
:100D480008952A93AD85BE85EF85F889099508959C
:100D5800E889F9893497E88BF98B0895AD85BE85C4
:100D6800EF85F88909950895A889B9891496ED91B0
:100D7800FD91EE83FF83AE81BF8108955A934A9314
:100D88003A932A931A930A9308955D814C813B8183
:100D98002A81198108810895AF93BF93DB01AC0FB5
:100DA800BD1F05900D928A95E1F7BF91AF91089507
:100DB800F195E195F0400895FA9FF02DEB9FF00D25
:100DC800EA9FE02DF10D08952AD0F6DF0EF4F0DF4A
:100DD80008950024112490E1AA0FBB1F001C111CC8
:100DE8000E1A1F0A18F40E0E1F1E01C0A1609A9554
:100DF80099F7FD01D001089512D0EBDF0EF4D8DF8A
:100E08000895E894B7FF04C0B195A195B0406894DF
:100E1800F7FDCEDFDEDFFD010EF4CADF0895E894AA
:100E2800F7FF02C0C5DF6894B7FF06C0B195A1956A
:100E3800B04000F8039400FA08950590F491E02D6D
:100E480008957A936A93FA93EA930895109639F07D
:100E5800A89580ED97E00197F1F71197C9F70895E4
:00000001FF
